:100000000C9434000C9451000C9451000C94510049
:100010000C9451000C9451000C9451000C94A002CB
:100020000C9451000C9451000C9451000C949300CA
:100030000C9451000C9451000C9451000C945100FC
:100040000C9451000C9451000C9451000C945100EC
:100050000C9451000C9451000C9451000C946202C9
:100060000C9451000C94510011241FBECFEFD8E026
:10007000DEBFCDBF13E0A0E0B1E0EEEDFEE002C0D8
:1000800005900D92AA34B107D9F713E0AAE4B3E0C2
:1000900001C01D92A138B107E1F70E9478030C94CA
:1000A0006D070C940000CF93DF93A0EBB0E01C929F
:1000B000E1EBF0E0108220E730E0E90118821092D5
:1000C000B20082E38093B3008C9182608C93808134
:1000D000816080838081826080838081846080836E
:1000E000888182608883DF91CF910895109280008B
:1000F000E1E8F0E0108268EE73E00E94460780E8D5
:100100009EE30E9446077093890060938800808177
:1001100088608083808181608083EFE6F0E0808169
:100120008260808308951F920F920FB60F92112460
:10013000AF92BF92CF92DF92EF92FF920F931F93F5
:100140002F933F934F935F936F937F938F939F93DF
:10015000AF93BF93CF93DF93EF93FF93E091560359
:10016000F0915703309789F08091690390916A0369
:100170008E0F9F1F2FE78F3F920710F08F5F9F47D3
:1001800090936A038093690304C010926A031092EB
:100190006903E0905803F0905903E114F10489F0E9
:1001A00080916B0390916C038E0D9F1D6FE78F3FC5
:1001B000960710F08F5F9F4790936C0380936B03BB
:1001C00004C010926C0310926B0300915A031091BB
:1001D0005B030115110589F080916D0390916E0309
:1001E000800F911F2FE78F3F920710F08F5F9F477F
:1001F00090936E0380936D0304C010926E0310926F
:100200006D03C0915C03D0915D03209789F08091CC
:100210006F03909170038C0F9D1F6FE78F3F9607C0
:1002200010F08F5F9F479093700380936F0304C01B
:100230001092700310926F03A0915E03B0915F0360
:10024000109789F080917103909172038A0F9B1F20
:100250002FE78F3F920710F08F5F9F4790937203B5
:100260008093710304C01092720310927103409145
:100270006003509161034115510589F0809173032A
:1002800090917403840F951F6FE78F3F960710F0CE
:100290008F5F9F47909374038093730304C0109201
:1002A000740310927303A0906203B0906303A114CF
:1002B000B10489F080917503909176038A0D9B1D9E
:1002C0002FE78F3F920710F08F5F9F479093760341
:1002D0008093750304C010927603109275036091A9
:1002E0006403709165036115710589F0809177034E
:1002F00090917803860F971F2FE78F3F920710F09A
:100300008F5F9F47909378038093770304C0109288
:10031000780310927703EF2B19F4CC24DD240FC05F
:10032000E0916903F0916A03EE0FEF2FEE1FFF0BD0
:10033000F195EE0FFF1FE75BFE4FC080D180EF28E5
:1003400019F480E090E00FC0E0916B03F0916C0332
:10035000EE0FEF2FEE1FFF0BF195EE0FFF1FE75B88
:10036000FE4F80819181012B19F400E010E00FC055
:10037000E0916D03F0916E03EE0FEF2FEE1FFF0B78
:10038000F195EE0FFF1FE75BFE4F00811181CD2B32
:1003900019F4C0E0D0E00FC0E0916F03F09170035A
:1003A000EE0FEF2FEE1FFF0BF195EE0FFF1FE75B38
:1003B000FE4FC081D181AB2B19F4A0E0B0E00FC09B
:1003C000E0917103F0917203EE0FEF2FEE1FFF0B20
:1003D000F195EE0FFF1FE75BFE4FA081B181452B2A
:1003E00019F440E050E00FC0E0917303F091740302
:1003F000EE0FEF2FEE1FFF0BF195EE0FFF1FE75BE8
:10040000FE4F40815181AB2819F420E030E00FC04D
:10041000E0917503F0917603EE0FEF2FEE1FFF0BC7
:10042000F195EE0FFF1FE75BFE4F20813181672BB7
:1004300019F4E0E0F0E010C0E0917703F091780368
:10044000EE0FEF2FEE1FFF0BF195EE0FFF1FE75B97
:10045000FE4F0190F081E02D8C0D9D1D800F911FAE
:100460008C0F9D1F8A0F9B1F840F951F820F931F58
:10047000609166038E0F9F1F70E00E944607CB01BC
:10048000609367039093680360E30E940206FF9104
:10049000EF91DF91CF91BF91AF919F918F917F911C
:1004A0006F915F914F913F912F911F910F91FF900D
:1004B000EF90DF90CF90BF90AF900F900FBE0F9056
:1004C0001F9018951F920F920FB60F9211242F9321
:1004D0003F934F935F936F937F938F939F93AF93CC
:1004E000BF93EF93FF93809170008D7F8093700096
:1004F0001092B2008AE793E062E573E00E94C406BE
:1005000080917F03883031F410927F0380917E03C5
:100510008093520380917000826080937000FF91FD
:10052000EF91BF91AF919F918F917F916F915F916B
:100530004F913F912F910F900FBE0F901F901895E4
:100540001F920F920FB60F9211242F933F934F9348
:100550005F936F937F938F939F93AF93BF93EF932B
:10056000FF9381E0809353039091800320914A038D
:1005700093FF34C080917C038F5F80937C032F3F77
:1005800021F5977F90938003309155033F5F20E0E2
:1005900060E041E050E009C0CA01022E02C0880FAD
:1005A000991F0A94E2F7682B2F5F2317A8F382E5BF
:1005B00093E00E943F068AE793E00E94850610922E
:1005C0004A0380EF95E50E94760080914A038823D4
:1005D00009F46AC08F5F80934A0366C02F3F99F485
:1005E00098609093800382E593E06FEF0E943F064E
:1005F0001092B200109281008AE793E00E94B60642
:1006000010924A0305C0222319F02F5F20934A035A
:1006100080914C038F3F59F482E593E06FE00E9494
:100620003F0610924C0382E08093000105C08823AE
:1006300019F08F5F80934C0380914B038F3F59F4E7
:1006400082E593E060EF0E943F0610924B0381E049
:100650008093000105C0882319F08F5F80934B03BE
:1006600080910001823001F590914F039F5F90933C
:100670004F039F3320F080914E0380FF04C09833D6
:1006800050F080914E038F5F80934E0310924F0382
:1006900081E08093500380914E03883028F081E000
:1006A0008093500310924E03809154038E3119F4BD
:1006B0001092540305C0882319F08F5F8093540370
:1006C0008091510391E08927826080935103FF91CB
:1006D000EF91BF91AF919F918F917F916F915F91BA
:1006E0004F913F912F910F900FBE0F901F90189533
:1006F0002F923F924F925F926F927F928F929F9232
:10070000AF92BF92CF92DF92EF92FF920F931F931F
:10071000DF93CF93CDB7DEB727970FB6F894DEBF40
:100720000FBECDBFF8940E9453000E94110680E0D6
:1007300060E040E024E00E94BF05229A80EF95E54A
:100740000E9476000E943706809352033091550331
:100750003F5F20E060E041E050E009C0CA01022EA6
:1007600002C0880F991F0A94E2F7682B2F5F2317A6
:10077000A8F382E593E00E943F060E948B0629833E
:100780003A834B835C836D837E838F83AAE7B3E0D8
:10079000FE01319687E001900D928150E1F78AE7E2
:1007A00093E00E948506789410E05FE1652E59E0A1
:1007B000752E40E2442E48E0542E3BEA232E37E0CB
:1007C000332E25EDA22E26E0B22E96E1892E96E05C
:1007D000992EFF24F39481E0C82ED12C01C01E2D48
:1007E00082E593E061E573E00E9442060E942D06D7
:1007F000E82E8091800383FF14C0809154038823E6
:1008000071F7EE2039F4112351F3F0924A03F0927C
:100810005403E5CF112319F7F092540310924A03C1
:10082000DECFEE2049F480914A03882301F5F0924F
:100830004A0310924C0319C010924A039E2DE0FC0B
:1008400007C080914C03882329F4F0924C0302C026
:1008500010924C0395FD07C080914B03882319F437
:10086000F0924B0304C091FF02C010924B038091A1
:100870000001813009F0A7C080915403882309F05A
:100880004AC00E2DE1FC23C011FF21C08091550309
:10089000833020F48F5F8093550302C0109255037C
:1008A000F0925403309155033F5F20E060E009C0AF
:1008B000C601022E02C0880F991F0A94E2F7682B26
:1008C0002F5F2317A8F382E593E00E943F0600FD07
:1008D00022C010FF20C080915503882311F0815061
:1008E00001C083E080935503309155033F5F20E0C2
:1008F00060E009C0C601022E02C0880F991F0A9449
:10090000E2F7682B2F5F2317A8F382E593E00E949C
:100910003F06F092540380915303882309F45FCF7C
:10092000109253030E9424065FB7F8941092570365
:1009300010925603109259031092580310925B03C1
:1009400010925A0310925D0310925C03109261039F
:100950001092600310926303109262031092650379
:100960001092640390915503A92FB0E004E0AA0F00
:10097000BB1F0A95E1F7A75FBE4F40E020E030E0E3
:10098000682F70E0CB01022E02C0959587950A94DE
:10099000E2F780FD0EC0443060F4E42FF0E0EE0F8B
:1009A000FF1FEA5AFC4F8D919C9111979183808390
:1009B0004F5F2F5F3F4F12962830310519F7409354
:1009C00066035FBFDBC0823009F009CFE0914D03C1
:1009D000F0E0EF5FFE4F82E593E060810E943F060A
:1009E000809154038823D9F49E2DE1FC0BC011FFA4
:1009F00009C080914D03873018F48F5F80934D03B9
:100A0000F092540390FD0BC010FF09C080914D037C
:100A1000882319F0815080934D03F092540394E0A1
:100A2000909366033FB7F8941092500320914E03C1
:100A30008091010190E0022E02C0959587950A945D
:100A4000E2F780FF05C0909257038092560304C0DE
:100A500010925703109256038091020190E0022EEB
:100A600002C0959587950A94E2F780FF05C0B09281
:100A70005903A092580304C01092590310925803CE
:100A80008091030190E0022E02C0959587950A940B
:100A9000E2F780FF05C030925B0320925A0304C046
:100AA00010925B0310925A038091040190E0022E91
:100AB00002C0959587950A94E2F780FF05C0509291
:100AC0005D0340925C0304C010925D0310925C03CE
:100AD0008091050190E0022E02C0959587950A94B9
:100AE000E2F780FF05C070925F0360925E0304C06E
:100AF00010925F0310925E038091060190E0022E37
:100B000002C0959587950A94E2F780FF07C08DE3B0
:100B10009AE0909361038093600304C01092610394
:100B2000109260038091070190E0022E02C095951B
:100B300087950A94E2F780FF07C08EE79BE09093C9
:100B400063038093620304C01092630310926203F4
:100B50008091080190E002C0959587952A95E2F76B
:100B600080FF07C08DE29CE090936503809364034F
:100B700004C010926503109264033FBF30CE982FDB
:100B8000203F39F42398249A84B1847084B925983D
:100B900004C0239A2498259A229A1CBC442311F459
:100BA00050E401C050EC203F11F440E001C040E1AE
:100BB000892F90E081FD02C030E001C038E08170F3
:100BC0009070880F991F880F991F6295660F607E3D
:100BD000682B922F9270962B822F8170892B582B25
:100BE000452B342B3CBD822F90E0969587959695AA
:100BF000879581708DBD08958EBD0DB407FEFDCF24
:100C00008EB508951F93182F2A98892F8F70607FB3
:100C1000862B0E94FC05812F0E94FC052A9A1F91B9
:100C200008958AB1807C8AB98BB18F638BB984B106
:100C30008C7F84B985B1836085B987B18F7C87B992
:100C400088B1806388B9089583B199B18295880F7E
:100C5000880F807C9F73892B089586B190E0807304
:100C6000907024E0959587952A95E1F7089588B1CD
:100C7000807F88B987B1807F87B980E00895FC01C3
:100C800060830895DC01FB01808181FF3DC08D7F81
:100C9000808398B1907F98B997B1907F97B99C91D4
:100CA00080FF19C0892F90FF03C043983B9A01C071
:100CB0003B9882FF03C042983A9A01C03A9884FF59
:100CC00003C04198399A01C0399886FF02C0409804
:100CD00018C038980895892F91FF03C0439A3B9A12
:100CE00001C03B9883FF03C0429A3A9A01C03A98E8
:100CF00085FF03C0419A399A01C0399897FF03C014
:100D0000409A389A08953898089520B7277F20BFD1
:100D1000FC0116820895DF93CF93CDB7DEB72E97EF
:100D20000FB6F894DEBF0FBECDBF88E180BFFE01D5
:100D3000319687E0DF011D928A95E9F7DE0118966A
:100D400087E001900D928150E1F7288539854A8529
:100D50005B856C857D858E8590E02E960FB6F89428
:100D6000DEBF0FBECDBFCF91DF910895FC01108291
:100D70001182128213821482158286818860868392
:100D800080B7886080BF08950F931F93CF93DF9340
:100D9000FC018B01468140FF2FC072815081272FBB
:100DA00030E085E0589FC0011124A3E09595879518
:100DB000AA95E1F7821793072CF441FF5FC0848165
:100DC000880F0FC052955F70571708F057C042FF49
:100DD00010C0842F8B7F868381FF08C08481880F99
:100DE0008160848385818F5F858348C0826086832C
:100DF00045C04460468342C08381843029F4416009
:100E00004683D8011C923AC04281242F30E0818170
:100E1000C82FD0E0CE01880F991F880F991F63E07B
:100E200070E00E945A0726173707C4F4CE01880FD6
:100E3000991F63E070E00E945A076217730774F409
:100E40008081882331F0280F311D35952795208327
:100E500001C0408383818F5F838302C0108213822D
:100E6000238130E02F5F3F4F81E090E002C0880F88
:100E7000991F2A95E2F78160D8018C938281818342
:100E80001282DF91CF911F910F910895AA1BBB1B76
:100E900051E107C0AA1FBB1FA617B70710F0A61B7A
:100EA000B70B881F991F5A95A9F780959095BC019B
:100EB000CD01089597FB092E07260AD077FD04D0AF
:100EC000E5DF06D000201AF4709561957F4F0895F4
:0E0ED000F6F7909581959F4F0895F894FFCF07
:100EDE000155AA5502B8FF40811606D506AB07206C
:100EEE00081F093D0A7E0B2D0C0B036A03D5038FD9
:100EFE00041E051606D506AB070B039E0310044E03
:100F0E00048F046C0516063D070B036A039E03103F
:100F1E00048F041E056C05160600000F001F002F1F
:100F2E00003F004F005F006F007F008F009F00AFFB
:100F3E0000BF00CF00DF00EF00FF000F011F012FE9
:100F4E00013F014F015F016F017F018F019F01AFD3
:100F5E0001BF01CF01DF01EF01FF010F021F022FC1
:100F6E00023F024F025F026F027F028F029F02AFAB
:100F7E0002BF02CF02DF02EF02FF020F031F032F99
:100F8E00033F034F035F036F037F038F039F03AF83
:100F9E0003BF03CF03DF03EF03FF030F041F042F71
:100FAE00043F044F045F046F047F048F049F04AF5B
:100FBE0004BF04CF04DF04EF04FF040F051F052F49
:100FCE00053F054F055F056F057F058F059F05AF33
:100FDE0005BF05CF05DF05EF05FF050F061F062F21
:100FEE00063F064F065F066F067F068F069F06AF0B
:100FFE0006BF06CF06DF06EF06FF060F071F072FF9
:10100E00073F074F075F076F077F078F079F07AFE2
:10101E0007BF07CF07DF07EF07FF070F081F082FD0
:10102E00083F084F085F086F087F088F089F08AFBA
:10103E0008BF08CF08DF08EF08FF080F091F092FA8
:10104E00093F094F095F096F097F098F099F09AF92
:10105E0009BF09CF09DF09EF09FF090F0A1F0A2F80
:10106E000A3F0A4F0A5F0A6F0A7F0A8F0A9F0AAF6A
:10107E000ABF0ACF0ADF0AEF0AFF0A0F0B1F0B2F58
:10108E000B3F0B4F0B5F0B6F0B7F0B8F0B9F0BAF42
:10109E000BBF0BCF0BDF0BEF0BFF0B0F0C1F0C2F30
:1010AE000C3F0C4F0C5F0C6F0C7F0C8F0C9F0CAF1A
:1010BE000CBF0CCF0CDF0CEF0CFF0C0F0D1F0D2F08
:1010CE000D3F0D4F0D5F0D6F0D7F0D8F0D9F0DAFF2
:1010DE000DBF0DCF0DDF0DEF0DFF0D0F0E1F0E2FE0
:1010EE000E3F0E4F0E5F0E6F0E7F0E8F0E9F0EAFCA
:1010FE000EBF0ECF0EDF0EEF0EFF0E0F0F1F0F2FB8
:10110E000F3F0F4F0F5F0F6F0F7F0F8F0F9F0FAFA1
:0A111E000FBF0FCF0FDF0FEF0F0020
:00000001FF
