:100000000C9434000C9451000C9451000C94510049
:100010000C9451000C9451000C9451000C9451001C
:100020000C9451000C9451000C9451000C94BA00A3
:100030000C9451000C9451000C9451000C945100FC
:100040000C9451000C9451000C9451000C945100EC
:100050000C9451000C9451000C9451000C945100DC
:100060000C9451000C94510011241FBECFEFD8E026
:10007000DEBFCDBF13E0A0E0B1E0EEECF4E002C0E3
:1000800005900D92A034B107D9F713E0A0E4B3E0D6
:1000900001C01D92A835B107E1F70E94B7010C9489
:1000A00065020C9400008AB1807C8AB98BB18F63A1
:1000B0008BB984B18C7F84B985B1836085B987B1F0
:1000C0008F7C87B988B1806388B90895843031F115
:1000D000853048F48130B9F0813098F08230A9F051
:1000E000833081F516C08730F9F0883028F48530E8
:1000F000B9F0863039F516C08830C9F0893011F56D
:100100001AC089B11CC089B110C089B18695869585
:1001100016C089B186958695869511C089B108C0AB
:1001200089B10AC083B10BC083B1869508C086B17E
:1001300082958F7004C086B1829586958770809570
:1001400081700895089510928000E1E8F0E0108237
:1001500087ED92E090938900809388008081886089
:100160008083808181608083EFE6F0E0808182601F
:10017000808308951F920F920FB60F9211242F9330
:100180003F934F935F936F937F938F939F93AF931F
:10019000BF93EF93FF9383B199B18295880F880F36
:1001A000807C9F73892B80934C03109241031092A3
:1001B00040031092430310924203109245031092A1
:1001C0004403109247031092460390914B03292F4A
:1001D00030E050E040E0682F70E0E3E0220F331F92
:1001E000EA95E1F71FC0A42FB0E0CB01042E02C0B6
:1001F000959587950A94E2F780FD13C0543088F4F2
:10020000E52FF0E0EE0FFF1FE05CFC4FA20FB31FE5
:10021000AA0FBB1FA050BD4F8D919C9191838083ED
:100220005F5F4F5F4830F8F250934A0340934D03AD
:1002300020914003309141032115310599F08091BF
:10024000560390915703820F931F2FE78F3F92071A
:1002500020F097FF07C08F5F9F47909357038093CD
:10026000560304C010925703109256032091420384
:10027000309143032115310599F0809154039091F9
:100280005503820F931F2FE78F3F920720F097FFB0
:1002900007C08F5F9F47909355038093540304C01A
:1002A000109255031092540320914403309145035A
:1002B0002115310599F08091520390915303820FDB
:1002C000931F2FE78F3F920720F097FF07C08F5FA4
:1002D0009F47909353038093520304C0109253039B
:1002E00010925203209146033091470321153105A6
:1002F00099F08091500390915103820F931F2FE743
:100300008F3F920720F097FF07C08F5F9F47909322
:1003100051038093500304C0109251031092500374
:10032000E0915603F0915703EE0FEF2FEE1FFF0BF6
:10033000F195EE0FFF1FE050FF4F80819181909368
:100340004F0380934E0360E30E945602FF91EF91AA
:10035000BF91AF919F918F917F916F915F914F91DD
:100360003F912F910F900FBE0F901F901895FF9205
:100370000F931F93CF93DF93F8940E94530080E074
:1003800060E040E024E00E941302229A80EF95E5AD
:100390000E94A30087B18F6087B988B1807F88B938
:1003A00078940FE0F3E0FF2EC0E4DFE189E00E94E3
:1003B0006600882389F010FD0FC088B1802788B9B6
:1003C00080914B03833020F48F5F80934B0302C0F6
:1003D00010924B0311E007C089E00E946600882359
:1003E00011F410FD10E088E00E946600882389F077
:1003F00011FD0FC088B1802788B980914B038823F5
:1004000021F0815080934B0302C0F0924B0312E025
:1004100006C088E00E946600882309F41D7FCE0193
:100420000197F1F7C3CF982F203F39F42398249AEE
:1004300084B1847084B9259804C0239A2498259A9D
:10044000229A1CBC442311F450E401C050EC203F1C
:1004500011F440E001C040E1892F90E081FD02C02D
:1004600030E001C038E081709070880F991F880FCC
:10047000991F6295660F607E682B922F9270962B63
:10048000822F8170892B582B452B342B3CBD822F1A
:1004900090E0969587959695879581708DBD089586
:1004A0008EBD0DB407FEFDCF8EB508951F93182F96
:1004B0002A98892F8F70607F862B0E945002812F8F
:0E04C0000E9450022A9A1F910895F894FFCFCF
:1004CE00FF07310863089608C808FA082B095D096A
:1004DE008E09C009F109210A510A810AB10AE00AFE
:1004EE000F0B3D0B6A0B980BC40BF00B1C0C460C40
:1004FE00710C9A0CC30CEB0C120D380D5E0D830DA6
:10050E00A70DCA0DEC0D0D0E2E0E4D0E6C0E890E96
:10051E00A50EC10EDB0EF50E0D0F240F3A0F4F0F69
:10052E00630F750F870F970FA60FB40FC10FCD0F67
:10053E00D70FE00FE80FEF0FF50FF90FFC0FFE0FBF
:10054E00FF0FFE0FFC0FF90FF50FEF0FE80FE00F87
:10055E00D70FCD0FC10FB40FA60F970F870F750FC3
:10056E00630F4F0F3A0F240F0D0FF50EDB0EC10E5A
:10057E00A50E890E6C0E4D0E2E0E0D0EEC0DCA0D27
:10058E00A70D830D5E0D380D120DEB0CC30C9A0CDE
:10059E00710C460C1C0CF00BC40B980B6A0B3D0B2C
:1005AE000F0BE00AB10A810A510A210AF109C009AA
:1005BE008E095D092B09FA08C808960863083108E8
:1005CE00FF07CD079B07680736070407D306A1066A
:1005DE0070063E060D06DD05AD057D054D051E05B5
:1005EE00EF04C104940466043A040E04E203B80353
:1005FE008D0364033B031303EC02C602A0027B02CD
:10060E00570234021202F101D001B10192017501BB
:10061E0059013D0123010901F100DA00C400AF00C8
:10062E009B0089007700670058004A003D003100AA
:10063E0027001E0016000F00090005000200000032
:10064E00000000000200050009000F0016001E0049
:10065E00270031003D004A005800670077008900EE
:10066E009B00AF00C400DA00F100090123013D0137
:10067E00590175019201B101D001F101120234024A
:10068E0057027B02A002C602EC0213033B03640373
:10069E008D03B803E2030E043A0466049404C10405
:1006AE00EF041E054D057D05AD05DD050D063E0667
:1006BE007006A106D3060407360768079B07CD0709
:1006CE000B036A03D50310048F041E05BF0516061F
:1006DE000B036A03D5038F041E051606D506AB075A
:1006EE000B039E0310044E048F046C0516063D0783
:1006FE000B036A039E0310048F041E056C05160679
:00000001FF
