:100000000C9434000C9451000C9451000C94510049
:100010000C9451000C9451000C9451000C94B802B3
:100020000C9451000C9451000C9451000C949300CA
:100030000C9451000C9451000C9451000C945100FC
:100040000C9451000C9451000C9451000C945100EC
:100050000C9451000C9451000C9451000C946202C9
:100060000C9451000C94510011241FBECFEFD8E026
:10007000DEBFCDBF13E0A0E0B1E0E2E1FFE002C0EF
:1000800005900D92AA34B107D9F713E0AAE4B3E0C2
:1000900001C01D92A338B107E1F70E9492030C94AE
:1000A00087070C940000CF93DF93A0EBB0E01C9285
:1000B000E1EBF0E0108220E730E0E90118821092D5
:1000C000B20082E38093B3008C9182608C93808134
:1000D000816080838081826080838081846080836E
:1000E000888182608883DF91CF910895109280008B
:1000F000E1E8F0E0108268EE73E00E94600780E8BB
:100100009EE30E946007709389006093880080815D
:1001100088608083808181608083EFE6F0E0808169
:100120008260808308951F920F920FB60F92112460
:10013000AF92BF92CF92DF92EF92FF920F931F93F5
:100140002F933F934F935F936F937F938F939F93DF
:10015000AF93BF93CF93DF93EF93FF93E091570358
:10016000F0915803309789F080916A0390916B0366
:100170008E0F9F1F2FE78F3F920710F08F5F9F47D3
:1001800090936B0380936A0304C010926B031092E8
:100190006A03E0905903F0905A03E114F10489F0E6
:1001A00080916C0390916D038E0D9F1D6FE78F3FC3
:1001B000960710F08F5F9F4790936D0380936C03B9
:1001C00004C010926D0310926C0300915B031091B8
:1001D0005C030115110589F080916E0390916F0306
:1001E000800F911F2FE78F3F920710F08F5F9F477F
:1001F00090936F0380936E0304C010926F0310926C
:100200006E03C0915D03D0915E03209789F08091C9
:100210007003909171038C0F9D1F6FE78F3F9607BE
:1002200010F08F5F9F47909371038093700304C019
:100230001092710310927003A0915F03B09160035C
:10024000109789F080917203909173038A0F9B1F1E
:100250002FE78F3F920710F08F5F9F4790937303B4
:100260008093720304C01092730310927203409142
:100270006103509162034115510589F08091740327
:1002800090917503840F951F6FE78F3F960710F0CD
:100290008F5F9F47909375038093740304C01092FF
:1002A000750310927403A0906303B0906403A114CB
:1002B000B10489F080917603909177038A0D9B1D9C
:1002C0002FE78F3F920710F08F5F9F479093770340
:1002D0008093760304C010927703109276036091A6
:1002E0006503709166036115710589F0809178034B
:1002F00090917903860F971F2FE78F3F920710F099
:100300008F5F9F47909379038093780304C0109286
:10031000790310927803EF2B19F4CC24DD240FC05D
:10032000E0916A03F0916B03EE0FEF2FEE1FFF0BCE
:10033000F195EE0FFF1FE75BFE4FC080D180EF28E5
:1003400019F480E090E00FC0E0916C03F0916D0330
:10035000EE0FEF2FEE1FFF0BF195EE0FFF1FE75B88
:10036000FE4F80819181012B19F400E010E00FC055
:10037000E0916E03F0916F03EE0FEF2FEE1FFF0B76
:10038000F195EE0FFF1FE75BFE4F00811181CD2B32
:1003900019F4C0E0D0E00FC0E0917003F091710358
:1003A000EE0FEF2FEE1FFF0BF195EE0FFF1FE75B38
:1003B000FE4FC081D181AB2B19F4A0E0B0E00FC09B
:1003C000E0917203F0917303EE0FEF2FEE1FFF0B1E
:1003D000F195EE0FFF1FE75BFE4FA081B181452B2A
:1003E00019F440E050E00FC0E0917403F091750300
:1003F000EE0FEF2FEE1FFF0BF195EE0FFF1FE75BE8
:10040000FE4F40815181AB2819F420E030E00FC04D
:10041000E0917603F0917703EE0FEF2FEE1FFF0BC5
:10042000F195EE0FFF1FE75BFE4F20813181672BB7
:1004300019F4E0E0F0E010C0E0917803F091790366
:10044000EE0FEF2FEE1FFF0BF195EE0FFF1FE75B97
:10045000FE4F0190F081E02D8C0D9D1D800F911FAE
:100460008C0F9D1F8A0F9B1F840F951F820F931F58
:10047000609167038E0F9F1F70E00E946007CB01A1
:10048000609368039093690360E30E941C06FF91E8
:10049000EF91DF91CF91BF91AF919F918F917F911C
:1004A0006F915F914F913F912F911F910F91FF900D
:1004B000EF90DF90CF90BF90AF900F900FBE0F9056
:1004C0001F9018951F920F920FB60F9211242F9321
:1004D0003F934F935F936F937F938F939F93AF93CC
:1004E000BF93EF93FF93809170008D7F8093700096
:1004F0001092B2008CE793E063E573E00E94DE06A1
:10050000809181038830F1F41092810390918003EF
:100510009093530320914D03222321F49F709093D5
:100520007A030DC080917A03821720F480E88093CB
:10053000800305C0E22FF0E0E050FF4F90832F5F73
:1005400020934D0380917000826080937000FF9132
:10055000EF91BF91AF919F918F917F916F915F913B
:100560004F913F912F910F900FBE0F901F901895B4
:100570001F920F920FB60F9211242F933F934F9318
:100580005F936F937F938F939F93AF93BF93EF93FB
:10059000FF9381E0809354039091820320914A035A
:1005A00093FF34C080917E038F5F80937E032F3F43
:1005B00021F5977F90938203309156033F5F20E0AF
:1005C00060E041E050E009C0CA01022E02C0880F7D
:1005D000991F0A94E2F7682B2F5F2317A8F383E58E
:1005E00093E00E9459068CE793E00E949F061092C8
:1005F0004A0380EF95E50E94760080914A038823A4
:1006000009F46CC08F5F80934A0368C02F3FA9F440
:1006100098609093820383E593E06FEF0E94590600
:100620001092B200109281008CE793E00E94D006F5
:1006300010924A0310924D0305C0222319F02F5F38
:1006400020934A0380914C038F3F59F483E593E054
:100650006FE00E94590610924C0382E080930001E3
:1006600005C0882319F08F5F80934C0380914B0362
:100670008F3F59F483E593E060EF0E945906109292
:100680004B0381E08093000105C0882319F08F5F40
:1006900080934B0380910001823001F590915003CB
:1006A0009F5F909350039F3320F080914F0380FF12
:1006B00004C0983350F080914F038F5F80934F03B5
:1006C0001092500381E08093510380914F03883052
:1006D00028F081E08093510310924F0380915503DD
:1006E0008E3119F41092550305C0882319F08F5FDD
:1006F000809355038091520391E089278260809313
:100700005203FF91EF91BF91AF919F918F917F9194
:100710006F915F914F913F912F910F900FBE0F906E
:100720001F9018952F923F924F925F926F927F92F7
:100730008F929F92AF92BF92CF92DF92EF92FF92F1
:100740000F931F93DF93CF93CDB7DEB727970FB6E5
:10075000F894DEBF0FBECDBFF8940E9453000E94F4
:100760002B0680E060E040E024E00E94D905229A58
:1007700080EF95E50E9476000E9451068093530316
:10078000309156033F5F20E060E041E050E009C057
:10079000CA01022E02C0880F991F0A94E2F7682B43
:1007A0002F5F2317A8F383E593E00E9459060E9468
:1007B000A50629833A834B835C836D837E838F8375
:1007C000ACE7B3E0FE01319687E001900D928150D5
:1007D000E1F78CE793E00E949F06789410E05FE1D8
:1007E000652E59E0752E40E2442E48E0542E3BEA37
:1007F000232E37E0332E25EDA22E26E0B22E96E1F1
:10080000892E96E0992EFF24F39481E0C82ED12CF6
:1008100001C01E2D83E593E062E573E00E945C0653
:100820000E944706E82E8091820383FF14C08091C6
:100830005503882371F7EE2039F4112351F3F09218
:100840004A03F0925503E5CF112319F7F0925503AF
:1008500010924A03DECFEE2049F480914A038823A8
:1008600001F5F0924A0310924C0319C010924A030A
:100870009E2DE0FC07C080914C03882329F4F09260
:100880004C0302C010924C0395FD07C080914B03AE
:10089000882319F4F0924B0304C091FF02C0109218
:1008A0004B0380910001813009F0A7C0809155036E
:1008B000882309F04AC00E2DE1FC23C011FF21C09E
:1008C00080915603833020F48F5F8093560302C0DB
:1008D00010925603F0925503309156033F5F20E08B
:1008E00060E009C0C601022E02C0880F991F0A9459
:1008F000E2F7682B2F5F2317A8F383E593E00E94AC
:10090000590600FD22C010FF20C0809156038823A5
:1009100011F0815001C083E080935603309156035B
:100920003F5F20E060E009C0C601022E02C0880FD0
:10093000991F0A94E2F7682B2F5F2317A8F383E52A
:1009400093E00E945906F092550380915403882346
:1009500009F45FCF109254030E943E065FB7F894EB
:10096000109258031092570310925A031092590391
:1009700010925C0310925B0310925E0310925D0371
:100980001092620310926103109264031092630349
:10099000109266031092650390915603A92FB0E060
:1009A00004E0AA0FBB1F0A95E1F7A75FBE4F40E026
:1009B00020E030E0682F70E0CB01022E02C0959558
:1009C00087950A94E2F780FD0EC0443060F4E42F6E
:1009D000F0E0EE0FFF1FE95AFC4F8D919C911197AB
:1009E000918380834F5F2F5F3F4F129628303105F0
:1009F00019F7409367035FBFDBC0823009F009CF6E
:100A0000E0914E03F0E0EF5FFE4F83E593E06081FD
:100A10000E945906809155038823D9F49E2DE1FC4C
:100A20000BC011FF09C080914E03873018F48F5F0F
:100A300080934E03F092550390FD0BC010FF09C048
:100A400080914E03882319F0815080934E03F092D9
:100A5000550394E0909367033FB7F89410925103C5
:100A600020914F038091010190E0022E02C09595E4
:100A700087950A94E2F780FF05C090925803809210
:100A8000570304C01092580310925703809102013B
:100A900090E0022E02C0959587950A94E2F780FFB8
:100AA00005C0B0925A03A092590304C010925A0391
:100AB000109259038091030190E0022E02C0959597
:100AC00087950A94E2F780FF05C030925C0320927C
:100AD0005B0304C010925C0310925B0380910401DD
:100AE00090E0022E02C0959587950A94E2F780FF68
:100AF00005C050925E0340925D0304C010925E03F5
:100B000010925D038091050190E0022E02C0959540
:100B100087950A94E2F780FF05C0709260036092A7
:100B20005F0304C01092600310925F03809106017E
:100B300090E0022E02C0959587950A94E2F780FF17
:100B400007C08DE39AE0909362038093610304C031
:100B500010926203109261038091070190E0022ECF
:100B600002C0959587950A94E2F780FF07C08EE74B
:100B70009BE0909364038093630304C0109264032A
:100B8000109263038091080190E002C095958795CB
:100B90002A95E2F780FF07C08DE29CE09093660300
:100BA0008093650304C010926603109265033FBFF3
:100BB00030CE982F203F39F42398249A84B1847042
:100BC00084B9259804C0239A2498259A229A1CBC9B
:100BD000442311F450E401C050EC203F11F440E0F4
:100BE00001C040E1892F90E081FD02C030E001C0EA
:100BF00038E081709070880F991F880F991F629557
:100C0000660F607E682B922F9270962B822F8170D8
:100C1000892B582B452B342B3CBD822F90E0969589
:100C200087959695879581708DBD08958EBD0DB47D
:100C300007FEFDCF8EB508951F93182F2A98892F90
:100C40008F70607F862B0E941606812F0E941606E9
:100C50002A9A1F9108958AB1807C8AB98BB18F63DB
:100C60008BB984B18C7F84B985B1836085B987B134
:100C70008F7C87B988B1806388B9089583B199B1B1
:100C80008295880F880F807C9F73892B089586B189
:100C900090E08073907024E0959587952A95E1F710
:100CA000089588B1807F88B987B1807F87B980E057
:100CB0000895FC0160830895DC01FB01808181FFC0
:100CC0003DC08D7F808398B1907F98B997B1907F18
:100CD00097B99C9180FF19C0892F90FF03C043985A
:100CE0003B9A01C03B9882FF03C042983A9A01C0E8
:100CF0003A9884FF03C04198399A01C0399886FF19
:100D000002C0409818C038980895892F91FF03C0F9
:100D1000439A3B9A01C03B9883FF03C0429A3A9A98
:100D200001C03A9885FF03C0419A399A01C03998A9
:100D300097FF03C0409A389A08953898089520B7CD
:100D4000277F20BFFC0116820895DF93CF93CDB794
:100D5000DEB72E970FB6F894DEBF0FBECDBF88E189
:100D600080BFFE01319687E0DF011D928A95E9F789
:100D7000DE01189687E001900D928150E1F72885F9
:100D800039854A855B856C857D858E8590E02E96BC
:100D90000FB6F894DEBF0FBECDBFCF91DF9108959F
:100DA000FC011082118212821382148215828681C4
:100DB0008860868380B7886080BF08950F931F93F3
:100DC000CF93DF93FC018B01468140FF2FC07281DE
:100DD0005081272F30E085E0589FC0011124A3E007
:100DE00095958795AA95E1F7821793072CF441FF13
:100DF0005FC08481880F0FC052955F70571708F04D
:100E000057C042FF10C0842F8B7F868381FF08C0AC
:100E10008481880F8160848385818F5F858348C04A
:100E20008260868345C04460468342C083818430AB
:100E300029F441604683D8011C923AC04281242F94
:100E400030E08181C82FD0E0CE01880F991F880F34
:100E5000991F63E070E00E94740726173707C4F4F7
:100E6000CE01880F991F63E070E00E94740762173B
:100E7000730774F48081882331F0280F311D359574
:100E80002795208301C0408383818F5F838302C0C5
:100E900010821382238130E02F5F3F4F81E090E08A
:100EA00002C0880F991F2A95E2F78160D8018C93C0
:100EB000828181831282DF91CF911F910F910895DA
:100EC000AA1BBB1B51E107C0AA1FBB1FA617B70770
:100ED00010F0A61BB70B881F991F5A95A9F780958C
:100EE0009095BC01CD01089597FB092E07260AD0E5
:100EF00077FD04D0E5DF06D000201AF470956195E7
:100F00007F4F0895F6F7909581959F4F0895F89437
:020F1000FFCF11
:100F12000155AA5502B8FF40811606D506AB072037
:100F2200081F093D0A7E0B2D0C0B036A03D5038FA4
:100F3200041E051606D506AB070B039E0310044ECE
:100F4200048F046C0516063D070B036A039E03100B
:100F5200048F041E056C05160600000F001F002FEB
:100F6200003F004F005F006F007F008F009F00AFC7
:100F720000BF00CF00DF00EF00FF000F011F012FB5
:100F8200013F014F015F016F017F018F019F01AF9F
:100F920001BF01CF01DF01EF01FF010F021F022F8D
:100FA200023F024F025F026F027F028F029F02AF77
:100FB20002BF02CF02DF02EF02FF020F031F032F65
:100FC200033F034F035F036F037F038F039F03AF4F
:100FD20003BF03CF03DF03EF03FF030F041F042F3D
:100FE200043F044F045F046F047F048F049F04AF27
:100FF20004BF04CF04DF04EF04FF040F051F052F15
:10100200053F054F055F056F057F058F059F05AFFE
:1010120005BF05CF05DF05EF05FF050F061F062FEC
:10102200063F064F065F066F067F068F069F06AFD6
:1010320006BF06CF06DF06EF06FF060F071F072FC4
:10104200073F074F075F076F077F078F079F07AFAE
:1010520007BF07CF07DF07EF07FF070F081F082F9C
:10106200083F084F085F086F087F088F089F08AF86
:1010720008BF08CF08DF08EF08FF080F091F092F74
:10108200093F094F095F096F097F098F099F09AF5E
:1010920009BF09CF09DF09EF09FF090F0A1F0A2F4C
:1010A2000A3F0A4F0A5F0A6F0A7F0A8F0A9F0AAF36
:1010B2000ABF0ACF0ADF0AEF0AFF0A0F0B1F0B2F24
:1010C2000B3F0B4F0B5F0B6F0B7F0B8F0B9F0BAF0E
:1010D2000BBF0BCF0BDF0BEF0BFF0B0F0C1F0C2FFC
:1010E2000C3F0C4F0C5F0C6F0C7F0C8F0C9F0CAFE6
:1010F2000CBF0CCF0CDF0CEF0CFF0C0F0D1F0D2FD4
:101102000D3F0D4F0D5F0D6F0D7F0D8F0D9F0DAFBD
:101112000DBF0DCF0DDF0DEF0DFF0D0F0E1F0E2FAB
:101122000E3F0E4F0E5F0E6F0E7F0E8F0E9F0EAF95
:101132000EBF0ECF0EDF0EEF0EFF0E0F0F1F0F2F83
:101142000F3F0F4F0F5F0F6F0F7F0F8F0F9F0FAF6D
:0A1152000FBF0FCF0FDF0FEF0F00EC
:00000001FF
