:100000000C9434000C9451000C9451000C94510049
:100010000C9451000C9451000C9451000C948801E4
:100020000C9451000C9451000C9451000C949300CA
:100030000C9451000C9451000C9451000C945100FC
:100040000C9451000C9451000C9451000C945100EC
:100050000C9451000C9451000C9451000C945100DC
:100060000C9451000C94510011241FBECFEFD8E026
:10007000DEBFCDBF13E0A0E0B1E0E8E4F6E002C0EF
:1000800005900D92A034B107D9F713E0A0E4B3E0D6
:1000900001C01D92A935B107E1F70E943F020C94FF
:1000A00022030C940000CF93DF93A0EBB0E01C92EE
:1000B000E1EBF0E0108220E730E0E90118821092D5
:1000C000B20081E88093B3008C9182608C93808130
:1000D000816080838081826080838081846080836E
:1000E000888182608883DF91CF910895109280008B
:1000F000E1E8F0E0108268EE73E00E940E0380E811
:100100009EE30E940E0370938900609388008081B3
:1001100088608083808181608083EFE6F0E0808169
:100120008260808308951F920F920FB60F92112460
:100130002F933F934F935F936F937F938F939F93EF
:10014000AF93BF93EF93FF93E0914203F09143038A
:10015000309789F080914E0390914F038E0F9F1F2F
:100160002FE78F3F920710F08F5F9F4790934F03C9
:1001700080934E0304C010924F0310924E0360917F
:100180004403709145036115710589F08091500316
:1001900090915103860F971F4FE78F3F940710F000
:1001A0008F5F9F47909351038093500304C0109238
:1001B00051031092500320914603309147032115BB
:1001C000310589F08091520390915303820F931F60
:1001D000AFE78F3F9A0710F08F5F9F4790935303CD
:1001E0008093520304C01092530310925203409123
:1001F0004803509149034115510589F080915403FA
:1002000090915503840F951FAFE78F3F9A0710F029
:100210008F5F9F47909355038093540304C01092BF
:10022000550310925403EF2B19F4A0E0B0E00FC077
:10023000E0914E03F0914F03EE0FEF2FEE1FFF0BF7
:10024000F195EE0FFF1FE05CFE4FA081B181672B9F
:1002500019F480E090E00FC0E0915003F091510359
:10026000EE0FEF2FEE1FFF0BF195EE0FFF1FE05C7F
:10027000FE4F80819181232B19F420E030E00FC0E4
:10028000E0915203F0915303EE0FEF2FEE1FFF0B9F
:10029000F195EE0FFF1FE05CFE4F20813181452B71
:1002A00019F4E0E0F0E010C0E0915403F091550340
:1002B000EE0FEF2FEE1FFF0BF195EE0FFF1FE05C2F
:1002C000FE4F0190F081E02D8A0F9B1F820F931F3C
:1002D00060914A038E0F9F1F70E00E940E03CB01B6
:1002E00060934C0390934D0360E30E94D902FF9109
:1002F000EF91BF91AF919F918F917F916F915F919E
:100300004F913F912F910F900FBE0F901F90189516
:100310001F920F920FB60F9211242F933F934F937A
:100320005F936F937F938F939F93AF93BF93EF935D
:10033000FF930E94FB028093580310924303109294
:100340004203109245031092440310924703109207
:100350004603109249031092480390914103292FBC
:1003600030E050E040E0682F70E0E3E0220F331F00
:10037000EA95E1F71FC0A42FB0E0CB01042E02C024
:10038000959587950A94E2F780FD13C0543088F460
:10039000E52FF0E0EE0FFF1FEE5BFC4FA20FB31F47
:1003A000AA0FBB1FA050BF4F8D919C91918380835A
:1003B0005F5F4F5F4830F8F250934A034093570312
:1003C00080914B03882341F0843120F48F5F809328
:1003D0004B0302C010924B0388B1807F88B987B16C
:1003E000807F87B980915603909140038823D1F094
:1003F00010925603892F90FF03C043983B9A01C087
:100400003B9882FF03C042983A9A01C03A9884FF11
:1004100003C04198399A01C0399886FF1EC04098A0
:10042000389A1CC08FEF80935603892F91FF03C029
:100430003B9A439A01C03B9883FF03C03A9A429A81
:1004400001C03A9885FF03C0399A419A01C0399892
:1004500097FF03C0389A409A01C03898FF91EF91F6
:10046000BF91AF919F918F917F916F915F914F91CC
:100470003F912F910F900FBE0F901F901895FF92F4
:100480000F931F93F8940E94E80288B1807F88B987
:1004900087B1807F87B980E060E040E024E00E947F
:1004A0009602229A80EF95E50E9476000E94530002
:1004B0008FEF80934003789410E001E0F3E0FF2E8B
:1004C00001C0122F0E940403282F80914B03882320
:1004D000C1F7922F21FD14C011FF12C0809140037B
:1004E000880F81608093400380914103833020F422
:1004F0008F5F8093410302C01092410300934B032E
:1005000090FDDFCF10FFDDCF809140038695809373
:10051000400380914103882321F08150809341035F
:1005200002C0F092410300934B03CBCF982F203FA2
:1005300039F42398249A84B1847084B9259804C02E
:10054000239A2498259A229A1CBC442311F450E43F
:1005500001C050EC203F11F440E001C040E1892F80
:1005600090E081FD02C030E001C038E08170907001
:10057000880F991F880F991F6295660F607E682B00
:10058000922F9270962B822F8170892B582B452B9E
:10059000342B3CBD822F90E0969587959695879554
:1005A00081708DBD08958EBD0DB407FEFDCF8EB553
:1005B00008951F93182F2A98892F8F70607F862B9C
:1005C0000E94D302812F0E94D3022A9A1F9108957C
:1005D0008AB1807C8AB98BB18F638BB984B18C7FEF
:1005E00084B985B1836085B987B18F7C87B988B1BB
:1005F000806388B9089583B199B18295880F880F77
:10060000807C9F73892B089586B190E080739070F1
:1006100024E0959587952A95E1F70895AA1BBB1BC1
:1006200051E107C0AA1FBB1FA617B70710F0A61BF2
:10063000B70B881F991F5A95A9F780959095BC0113
:08064000CD010895F894FFCFED
:100648001606D506AB0720081F093D0A7E0B2D0CA0
:100658000B036A03D5038F041E051606D506AB07E0
:100668000B039E0310044E048F046C0516063D0709
:100678000B036A039E0310048F041E056C051606FF
:10068800FF07310863089608C808FA082B095D09AE
:100698008E09C009F109210A510A810AB10AE00A42
:1006A8000F0B3D0B6A0B980BC40BF00B1C0C460C84
:1006B800710C9A0CC30CEB0C120D380D5E0D830DEA
:1006C800A70DCA0DEC0D0D0E2E0E4D0E6C0E890EDB
:1006D800A50EC10EDB0EF50E0D0F240F3A0F4F0FAE
:1006E800630F750F870F970FA60FB40FC10FCD0FAC
:1006F800D70FE00FE80FEF0FF50FF90FFC0FFE0F04
:10070800FF0FFE0FFC0FF90FF50FEF0FE80FE00FCB
:10071800D70FCD0FC10FB40FA60F970F870F750F07
:10072800630F4F0F3A0F240F0D0FF50EDB0EC10E9E
:10073800A50E890E6C0E4D0E2E0E0D0EEC0DCA0D6B
:10074800A70D830D5E0D380D120DEB0CC30C9A0C22
:10075800710C460C1C0CF00BC40B980B6A0B3D0B70
:100768000F0BE00AB10A810A510A210AF109C009EE
:100778008E095D092B09FA08C8089608630831082C
:10078800FF07CD079B07680736070407D306A106AE
:1007980070063E060D06DD05AD057D054D051E05F9
:1007A800EF04C104940466043A040E04E203B80397
:1007B8008D0364033B031303EC02C602A0027B0211
:1007C800570234021202F101D001B1019201750100
:1007D80059013D0123010901F100DA00C400AF000D
:1007E8009B0089007700670058004A003D003100EF
:1007F80027001E0016000F00090005000200000077
:10080800000000000200050009000F0016001E008D
:10081800270031003D004A00580067007700890032
:100828009B00AF00C400DA00F100090123013D017B
:10083800590175019201B101D001F101120234028E
:1008480057027B02A002C602EC0213033B036403B7
:100858008D03B803E2030E043A0466049404C10449
:10086800EF041E054D057D05AD05DD050D063E06AB
:100878007006A106D3060407360768079B07CD074D
:00000001FF
