S00C00006D61696E2E7372656373
S11300000C9434000C9451000C9451000C94510045
S11300100C9451000C9451000C9451000C94510018
S11300200C9451000C9451000C9451000C94BA009F
S11300300C9451000C9451000C9451000C945100F8
S11300400C9451000C9451000C9451000C945100E8
S11300500C9451000C9451000C9451000C945100D8
S11300600C9451000C94510011241FBECFEFD8E022
S1130070DEBFCDBF11E0A0E0B1E0E4E6F3E002C0F2
S113008005900D92A034B107D9F711E0A0E4B1E0D6
S113009001C01D92AE34B107E1F70E9417010C9420
S11300A0B0010C9400008AB1807C8AB98BB18F6353
S11300B08BB984B18C7F84B985B1836085B987B1EC
S11300C08F7C87B988B1806388B90895843031F111
S11300D0853048F48130B9F0813098F08230A9F04D
S11300E0833081F516C08730F9F0883028F48530E4
S11300F0B9F0863039F516C08830C9F0893011F569
S11301001AC089B11CC089B110C089B18695869581
S113011016C089B186958695869511C089B108C0A7
S113012089B10AC083B10BC083B1869508C086B17A
S113013082958F7004C086B182958695877080956C
S113014081700895089510928000E1E8F0E0108233
S113015087ED92E090938900809388008081886085
S11301608083808181608083EFE6F0E0808182601B
S1130170808308951F920F920FB60F9211242F932C
S11301803F934F935F936F937F938F939F93AF931B
S1130190BF93EF93FF9393B189B19295990F990F00
S11301A0907C8F73982B90934C0110924101109284
S11301B040011092430110924201109245011092A5
S11301C04401109247011092460110924A0187E0BF
S11301D080934D0180914B01282F30E040E057E09F
S11301E0692F70E0E3E0220F331FEA95E1F7A52FB2
S11301F0B0E0CB01052E02C0959587950A94E2F7ED
S113020080FD13C0443088F4E42FF0E0EE0FFF1FAC
S1130210E05CFE4FA20FB31FAA0FBB1FA050BF4F3D
S11302208D919C91918380834F5F5150E0CFFF92D9
S11302300F931F93CF93DF93F8940E94530080E0B1
S113024060E040E024E00E947301229A80EF95E58B
S11302500E94A30087B18F6087B988B1807F88B975
S113026078940FE0F3E0FF2EC0E4DFE189E00E9420
S11302706600882389F010FD0FC088B1802788B9F3
S113028080914B01833020F48F5F80934B0102C037
S113029010924B0111E007C089E00E946600882398
S11302A011F410FD10E088E00E946600882389F0B4
S11302B011FD0FC088B1802788B980914B01882334
S11302C021F0815080934B0102C0F0924B0112E067
S11302D006C088E00E946600882309F41D7FCE01D1
S11302E00197F1F7C3CF982F203F39F42398249A2C
S11302F084B1847084B9259804C0239A2498259ADB
S1130300229A1CBC442311F450E401C050EC203F59
S113031011F440E001C040E1892F90E081FD02C06A
S113032030E001C038E081709070880F991F880F09
S1130330991F6295660F607E682B922F9270962BA0
S1130340822F8170892B582B452B342B3CBD822F57
S113035090E0969587959695879581708DBD0895C3
S1070360F894FFCF3B
S11303640B036A03D50310048F041E05BF05160688
S11303740B036A03D5038F041E051606D506AB07C3
S11303840B039E0310044E048F046C0516063D07EC
S11303940B036A039E0310048F041E056C051606E2
S9030000FC
