S00C00006D61696E2E7372656373
S11300000C9434000C9451000C9451000C94510045
S11300100C9451000C9451000C9451000C94C9039D
S11300200C9451000C9451000C9451000C949300C6
S11300300C9451000C9451000C9451000C945100F8
S11300400C9451000C9451000C9451000C945100E8
S11300500C9451000C9451000C9451000C946202C5
S11300600C9451000C94510011241FBECFEFD8E022
S1130070DEBFCDBF13E0A0E0B1E0E6E9F2E102C0EB
S113008005900D92A234B107D9F715E0A2E4B3E0CC
S113009001C01D92AA3CB107E1F70E94B5040C947B
S11300A049090C940000CF93DF93A0EBB0E01C92BD
S11300B0E1EBF0E0108220E730E0E90118821092D1
S11300C0B20082E38093B3008C9182608C93808130
S11300D0816080838081826080838081846080836A
S11300E0888182608883DF91CF9108951092800087
S11300F0E1E8F0E0108268EE73E00E94F20880E824
S11301009EE30E94F20870938900609388008081C6
S113011088608083808181608083EFE6F0E0808165
S11301208260808308951F920F920FB60F9211245C
S1130130AF92BF92CF92DF92EF92FF920F931F93F1
S11301402F933F934F935F936F937F938F939F93DB
S1130150AF93BF93CF93DF93EF93FF93E091990312
S1130160F0919A03309789F08091AC039091AD039C
S11301708E0F9F1F2FE78F3F920710F08F5F9F47CF
S11301809093AD038093AC0304C01092AD0310921E
S1130190AC03E0909B03F0909C03E114F10489F01C
S11301A08091AE039091AF038E0D9F1D6FE78F3F3B
S11301B0960710F08F5F9F479093AF038093AE0331
S11301C004C01092AF031092AE0300919D031091EE
S11301D09E030115110589F08091B0039091B1033C
S11301E0800F911F2FE78F3F920710F08F5F9F477B
S11301F09093B1038093B00304C01092B1031092A2
S1130200B003C0919F03D091A003209789F08091FF
S1130210B2039091B3038C0F9D1F6FE78F3F960736
S113022010F08F5F9F479093B3038093B20304C091
S11302301092B3031092B203A091A103B091A20350
S1130240109789F08091B4039091B5038A0F9B1F96
S11302502FE78F3F920710F08F5F9F479093B5036E
S11302608093B40304C01092B5031092B403409178
S1130270A3035091A4034115510589F08091B6035D
S11302809091B703840F951F6FE78F3F960710F087
S11302908F5F9F479093B7038093B60304C0109277
S11302A0B7031092B603A090A503B090A603A114BF
S11302B0B10489F08091B8039091B9038A0D9B1D14
S11302C02FE78F3F920710F08F5F9F479093B903FA
S11302D08093B80304C01092B9031092B8036091DC
S11302E0A7037091A8036115710589F08091BA0381
S11302F09091BB03860F971F2FE78F3F920710F053
S11303008F5F9F479093BB038093BA0304C01092FE
S1130310BB031092BA03EF2B19F4CC24DD240FC0D5
S1130320E091AC03F091AD03EE0FEF2FEE1FFF0B46
S1130330F195EE0FFF1FEE53FC4FC080D180EF28E4
S113034019F480E090E00FC0E091AE03F091AF03A8
S1130350EE0FEF2FEE1FFF0BF195EE0FFF1FEE5385
S1130360FC4F80819181012B19F400E010E00FC053
S1130370E091B003F091B103EE0FEF2FEE1FFF0BEE
S1130380F195EE0FFF1FEE53FC4F00811181CD2B31
S113039019F4C0E0D0E00FC0E091B203F091B303D0
S11303A0EE0FEF2FEE1FFF0BF195EE0FFF1FEE5335
S11303B0FC4FC081D181AB2B19F4A0E0B0E00FC099
S11303C0E091B403F091B503EE0FEF2FEE1FFF0B96
S11303D0F195EE0FFF1FEE53FC4FA081B181452B29
S11303E019F440E050E00FC0E091B603F091B70378
S11303F0EE0FEF2FEE1FFF0BF195EE0FFF1FEE53E5
S1130400FC4F40815181AB2819F420E030E00FC04B
S1130410E091B803F091B903EE0FEF2FEE1FFF0B3D
S1130420F195EE0FFF1FEE53FC4F20813181672BB6
S113043019F4E0E0F0E010C0E091BA03F091BB03DE
S1130440EE0FEF2FEE1FFF0BF195EE0FFF1FEE5394
S1130450FC4F0190F081E02D8C0D9D1D800F911FAC
S11304608C0F9D1F8A0F9B1F840F951F820F931F54
S11304706091A9038E0F9F1F70E00E94F208CB01C8
S11304806093AA039093AB0360E30E94AE07FF91CD
S1130490EF91DF91CF91BF91AF919F918F917F9118
S11304A06F915F914F913F912F911F910F91FF9009
S11304B0EF90DF90CF90BF90AF900F900FBE0F9052
S11304C01F9018951F920F920FB60F9211244F92FE
S11304D05F926F927F928F929F92AF92BF92CF92D0
S11304E0DF92FF920F931F932F933F934F935F934A
S11304F06F937F938F939F93AF93BF93CF93DF9328
S1130500EF93FF93809170008D7F80937000109221
S1130510B20083EC95E065E973E00E947008809175
S1130520C805883009F010C11092C8054091C7056C
S113053040939503F0904503FF2099F4242F30E075
S1130540C90180739070892B11F080E304C0842F5B
S1130550807C19F080EC8093BC034F704093C103FE
S1130560F0C08091C1038F1508F0C5C0403809F070
S1130570E8C08091BC03803C09F0E3C040908A034A
S113058050908B0360908C0370908D0380908E0349
S113059090908F03A0909003B0909103C090920329
S11305A0D0909303C0E0D0E000E010E0F801F070D8
S11305B0EE0FFF1FEE5BFE4F80819181880F991F24
S11305C0880F991F9C012A9DC0012B9D900D3A9D77
S11305D0900D112454E0969587955A95E1F7FE0104
S11305E0EE5BFE4F20813181220F331F220F331F18
S11305F0A901449D9001459D300D549D300D112459
S1130600B4E036952795BA95E1F7820F931FFE0162
S1130610F070EE0FFF1FEE5BFE4F20813181220F41
S1130620331F220F331FA901469D9001479D300DB2
S1130630569D300D112464E0369527956A95E1F7AF
S1130640820F931FFE01EE0FFF1FEE0FFF1FEC7FC3
S1130650F170EE5BFE4F20813181220F331F220F98
S1130660331FA901489D9001499D300D589D300DBF
S11306701124B4E036952795BA95E1F7820F931FBC
S1130680F801EE0FFF1FEE0FFF1FEC7FF170EE5B22
S1130690FE4F20813181220F331F220F331FA90106
S11306A04C9D90014D9D300D5C9D300D112474E0E6
S11306B0369527957A95E1F7820F931F65E070E0F0
S11306C00E94F2089B0140E050E0FE01EE53FC4F13
S11306D0718360832296085F1F4F82E0C030D80781
S11306E009F064CF2093BD033093BE034093BF034E
S11306F05093C00326C08091BC03803379F4E09109
S11307004603F0E063E0EE0FFF1F6A95E1F7E95B53
S1130710FC4FEF0DF11D3197408313C0803C89F4E9
S1130720E42FE295E695E770F0E0EE0FFF1FE65741
S1130730FC4F46954695842F90E087709070918386
S11307408083F394F09245038091700082608093DB
S11307507000FF91EF91DF91CF91BF91AF919F9185
S11307608F917F916F915F914F913F912F911F9145
S11307700F91FF90DF90CF90BF90AF909F908F909C
S11307807F906F905F904F900F900FBE0F901F90CF
S113079018951F920F920FB60F9211242F933F9327
S11307A04F935F936F937F938F939F93AF93BF9375
S11307B0EF93FF9381E0809396039091C905209174
S11307C0420393FF3CC08091C5058F5F8093C505AC
S11307D02F3F61F5977F9093C905309198033F5F50
S11307E020E060E041E050E009C0CA01022E02C0EE
S11307F0880F991F0A94E2F7682B2F5F2317A8F339
S113080085E993E00E94EB0783EC95E00E943108B0
S11308101092420387E493E060E070E040E450E02B
S11308200E94310980EF95E50E9476008091420391
S1130830882309F476C08F5F8093420372C02F3FF0
S1130840A9F498609093C90585E993E06FEF0E943D
S1130850EB071092B2001092810083EC95E00E94A5
S11308606208109242031092450305C0222319F036
S11308702F5F20934203809144038F3F59F485E90D
S113088093E06FE00E94EB071092440382E08093B0
S1130890010105C0882319F08F5F80934403809180
S11308A043038F3F59F485E993E060EF0E94EB071F
S11308B01092430381E08093010105C0882319F05D
S11308C08F5F8093430380910101823051F5209121
S11308D088032F5F2093880380910001281740F03C
S11308E04091870340FD04C04F5F409387030BC0D2
S11308F030E090E005972817390754F0809187037A
S11309008F5F809387031092880381E0809389032B
S113091080918703883028F081E0809389031092C6
S11309208703809197038E3119F41092970305C0C1
S1130930882319F08F5F809397038091940391E04B
S11309408927826080939403FF91EF91BF91AF91C7
S11309509F918F917F916F915F914F913F912F91D3
S11309600F900FBE0F901F9018952F923F924F92A9
S11309705F926F927F928F929F92AF92BF92CF922B
S1130980DF92EF92FF920F931F93DF93CF93CDB734
S1130990DEB727970FB6F894DEBF0FBECDBFF8942D
S11309A020E030E0F901EE53FC4FD901AE5BBE4FBD
S11309B08D919C91918380832E5F3F4F82E0203004
S11309C0380781F780E490E00E9429098093400071
S11309D08F3F71F480E490E063E30E943B0987E475
S11309E093E060E070E040E450E00E94310908C008
S11309F087E493E060E070E040E450E00E9419096D
S1130A000E9453000E94BD0780E060E040E024E0C3
S1130A100E946B07229A80EF95E50E9476000E945F
S1130A20E30780939503309198033F5F20E060E0F3
S1130A3041E050E009C0CA01022E02C0880F991F8C
S1130A400A94E2F7682B2F5F2317A8F385E993E054
S1130A500E94EB070E94370829833A834B835C8307
S1130A606D837E838F83A3ECB5E0FE01319687E02E
S1130A7001900D928150E1F783EC95E00E943108DA
S1130A80789410E0FF2461E0A62EB12C56E1252EC7
S1130A9056E0352E45ED842E43E0942E3AE6632E3F
S1130AA033E0732E2BE0422E23E0522E01E001C0EE
S1130AB01C2D85E993E064E973E00E94EE070E942F
S1130AC0D907C82E8091C90583FF14C0809197036C
S1130AD0882371F7CC2039F4112351F30093420396
S1130AE000939703E5CF112319F70093970310920E
S1130AF04203DECFCC2049F480914203882301F5E0
S1130B00009342031092440319C0109242039C2D97
S1130B10C0FC07C080914403882329F40093440354
S1130B2002C01092440395FD07C0809143038823BB
S1130B3019F40093430304C091FF02C010924303CD
S1130B4080910101813009F0ADC080919703882321
S1130B5009F04CC0EC2CC1FC23C011FF21C08091D2
S1130B609803833020F48F5F8093980302C010921F
S1130B70980300939703309198033F5F20E060E06F
S1130B8009C0C501022E02C0880F991F0A94E2F71A
S1130B90682B2F5F2317A8F385E993E00E94EB07E6
S1130BA0E0FC24C010FF22C080919803882321F028
S1130BB081508093980303C093E0909398033091FD
S1130BC098033F5F20E060E009C0C501022E02C027
S1130BD0880F991F0A94E2F7682B2F5F2317A8F355
S1130BE085E993E00E94EB070093970380919603B5
S1130BF0882309F45DCF109296030E94D0075FB753
S1130C00F89410929A031092990310929C031092F4
S1130C109B0310929E0310929D031092A0031092C6
S1130C209F031092A2031092A1031092A4031092A6
S1130C30A3031092A6031092A5031092A803109286
S1130C40A70390919803A92FB0E094E0AA0FBB1FCB
S1130C509A95E1F7AE5FBE4F40E020E030E0682FA8
S1130C6070E0CB01022E02C0959587950A94E2F7B5
S1130C7080FD0EC0443060F4E42FF0E0EE0FFF1F5F
S1130C80E756FC4F8D919C911197918380834F5F20
S1130C902F5F3F4F12962830310519F74093A9036F
S1130CA05FBF06CF823009F003CF309146033F5F28
S1130CB020E060E009C0C501022E02C0880F991F20
S1130CC00A94E2F7682B2F5F2317A8F385E993E0D2
S1130CD00E94EB070E94D007D82E809197038823A7
S1130CE009F07FC0EC2CC1FC24C011FF22C080910C
S1130CF000018F3C20F4805F8093000103C02FEC3F
S1130D002093000100939703309198033F5F20E004
S1130D1060E009C0C501022E02C0880F991F0A9421
S1130D20E2F7682B2F5F2317A8F385E993E00E946D
S1130D30EB07E0FC0FC010FF0DC080910001803371
S1130D4020F080518093000103C03FE23093000102
S1130D50009397038D2DD0FC06C0F0FE04C01092C2
S1130D6046030093970381FD06C0F1FE04C000937F
S1130D7046030093970382FD07C0F2FE05C092E08C
S1130D80909346030093970383FD07C0F3FE05C0C9
S1130D9023E0209346030093970384FD07C0F4FEE9
S1130DA005C034E0309346030093970385FD07C0E4
S1130DB0F5FE05C095E0909346030093970386FDE6
S1130DC007C0F6FE05C026E0209346030093970370
S1130DD0D7FC07C0F7FE05C037E030934603009305
S1130DE0970384E08093A9039FB7F8941092890332
S1130DF080918703E0914603F0E0A3E0EE0FFF1F2C
S1130E00AA95E1F7E80FF11DE95BFC4FE0818E2F15
S1130E10E0FF05C050929A034092990304C01092D7
S1130E209A031092990381FF05C070929C0360920B
S1130E309B0304C010929C0310929B0382FF05C085
S1130E4090929E0380929D0304C010929E03109280
S1130E509D0383FF07C020E134E03093A003209377
S1130E609F0304C01092A00310929F0384FF07C045
S1130E702FE834E03093A2032093A10304C010921E
S1130E80A2031092A10385FF07C02EE135E0309341
S1130E90A4032093A30304C01092A4031092A303F9
S1130EA086FF07C02FEB35E03093A6032093A503FC
S1130EB004C01092A6031092A503E7FF05C0309268
S1130EC0A8032092A70304C01092A8031092A703BA
S1130ED09FBFFD2CEDCD982F203F39F42398249A01
S1130EE084B1847084B9259804C0239A2498259ADF
S1130EF0229A1CBC442311F450E401C050EC203F5E
S1130F0011F440E001C040E1892F90E081FD02C06E
S1130F1030E001C038E081709070880F991F880F0D
S1130F20991F6295660F607E682B922F9270962BA4
S1130F30822F8170892B582B452B342B3CBD822F5B
S1130F4090E0969587959695879581708DBD0895C7
S1130F508EBD0DB407FEFDCF8EB508951F93182FD7
S1130F602A98892F8F70607F862B0E94A807812F73
S1130F700E94A8072A9A1F9108958AB1807C8AB991
S1130F808BB18F638BB984B18C7F84B985B1836055
S1130F9085B987B18F7C87B988B1806388B9089592
S1130FA083B199B18295880F880F807C9F73892BB8
S1130FB0089586B190E08073907024E095958795AC
S1130FC02A95E1F7089588B1807F88B987B1807F39
S1130FD087B980E00895FC0160830895DC01FB017A
S1130FE0808181FF3DC08D7F808398B1907F98B9C7
S1130FF097B1907F97B99C9180FF19C0892F90FF7A
S113100003C043983B9A01C03B9882FF03C04298B7
S11310103A9A01C03A9884FF03C04198399A01C0B2
S1131020399886FF02C0409818C038980895892FCF
S113103091FF03C0439A3B9A01C03B9883FF03C0CE
S1131040429A3A9A01C03A9885FF03C0419A399A64
S113105001C0399897FF03C0409A389A0895389888
S1131060089520B7277F20BFFC0116820895DF93DF
S1131070CF93CDB7DEB72E970FB6F894DEBF0FBE71
S1131080CDBF88E180BFFE01319687E0DF011D926C
S11310908A95E9F7DE01189687E001900D92815058
S11310A0E1F7288539854A855B856C857D858E8544
S11310B090E02E960FB6F894DEBF0FBECDBFCF9151
S11310C0DF910895FC01108211821282138214822E
S11310D0158286818860868380B7886080BF089582
S11310E00F931F93CF93DF93FC018B01468140FF45
S11310F02FC072815081272F30E085E0589FC001B6
S11311001124A3E095958795AA95E1F78217930793
S11311102CF441FF5FC08481880F0FC052955F702B
S1131120571708F057C042FF10C0842F8B7F868367
S113113081FF08C08481880F8160848385818F5FEB
S1131140858348C08260868345C04460468342C02C
S11311508381843029F441604683D8011C923AC0CB
S11311604281242F30E08181C82FD0E0CE01880F46
S1131170991F880F991F63E070E00E9406092617E3
S11311803707C4F4CE01880F991F63E070E00E9412
S113119006096217730774F48081882331F0280FDD
S11311A0311D35952795208301C0408383818F5F4E
S11311B0838302C010821382238130E02F5F3F4F6C
S11311C081E090E002C0880F991F2A95E2F78160C0
S11311D0D8018C93828181831282DF91CF911F91F8
S11311E00F910895AA1BBB1B51E107C0AA1FBB1F87
S11311F0A617B70710F0A61BB70B881F991F5A959F
S1131200A9F780959095BC01CD01089597FB092E0F
S113121007260AD077FD04D0E5DF06D000201AF4B3
S1131220709561957F4F0895F6F7909581959F4F3E
S11312300895DC01CB01FC01F999FECF06C0F2BD93
S1131240E1BDF89A319600B40D9241505040B8F780
S11312500895F999FECF92BD81BDF89A992780B57A
S11312600895DC01CB0103C02D910E943C0941503B
S11312705040D0F70895262FF999FECF1FBA92BD9A
S113128081BD20BD0FB6F894FA9AF99A0FBE019663
S10912900895F894FFCF5D
S11312965F011606D506AB0720081F093D0A7E0B1B
S11312A62D0C0B036A03D5038F041E051606D506FB
S11312B6AB070B039E0310044E048F046C0516063D
S11312C63D070B036A039E0310048F041E056C0579
S11312D61606FF07310863089608C808FA082B099A
S11312E65D098E09C009F109210A510A810AB10A68
S11312F6E00A0F0B3D0B6A0B980BC40BF00B1C0C8E
S1131306460C710C9A0CC30CEB0C120D380D5E0DC9
S1131316830DA70DCA0DEC0D0D0E2E0E4D0E6C0E83
S1131326890EA50EC10EDB0EF50E0D0F240F3A0F16
S11313364F0F630F750F870F970FA60FB40FC10FCB
S1131346CD0FD70FE00FE80FEF0FF50FF90FFC0FD6
S1131356FE0FFF0FFE0FFC0FF90FF50FEF0FE80F4F
S1131366E00FD70FCD0FC10FB40FA60F970F870F3E
S1131376750F630F4F0F3A0F240F0D0FF50EDB0E8B
S1131386C10EA50E890E6C0E4D0E2E0E0D0EEC0D15
S1131396CA0DA70D830D5E0D380D120DEB0CC30C93
S11313A69A0C710C460C1C0CF00BC40B980B6A0BB4
S11313B63D0B0F0BE00AB10A810A510A210AF10911
S11313C6C0098E095D092B09FA08C808960863083E
S11313D63108FF07CD079B07680736070407D306BE
S11313E6A10670063E060D06DD05AD057D054D0517
S11313F61E05EF04C104940466043A040E04E203D1
S1131406B8038D0364033B031303EC02C602A00274
S11314167B02570234021202F101D001B10192019A
S1131426750159013D0123010901F100DA00C400E7
S1131436AF009B0089007700670058004A003D0012
S1131446310027001E0016000F00090005000200E7
S11314560000000000000200050009000F0016004D
S11314661E00270031003D004A005800670077003F
S113147689009B00AF00C400DA00F10009012301D2
S11314863D01590175019201B101D001F101120228
S1131496340257027B02A002C602EC0213033B038A
S11314A664038D03B803E2030E043A046604940449
S11314B6C104EF041E054D057D05AD05DD050D06CC
S11314C63E067006A106D3060407360768079B077F
S10514D6CD073C
S9030000FC
