:107800005CC000008FC0000073C0000071C00000A9
:107810006FC000006DC000006BC0000069C00000B8
:1078200067C0000065C0000063C0000061C00000C8
:107830005FC000005DC000005BC0000059C00000D8
:1078400057C0000055C0000053C0000051C00000E8
:107850004FC000004DC000004BC0000049C00000F8
:1078600047C0000045C00000040309041C03770062
:10787000770077002E0066006900730063006800DF
:107880006C002E00640065000E035500530042009A
:1078900061007300700012011001FF000008C016A3
:1078A000DC05020101020001090212000101008051
:1078B0003209040000000000000011241FBECFEFB9
:1078C000D8E0DEBFCDBF11E0A0E0B1E0E6E6FFE723
:1078D00002C005900D92A630B107D9F711E0A6E0DD
:1078E000B1E001C01D92A134B107E1F73CD139C329
:1078F00087CFA82FB92F80E090E041E050EA609553
:1079000030E009C02D9182279795879510F0842744
:107910009527305EC8F36F5FA8F30895EADF8D9373
:107920009D930895CF93CFB7CF93DF93C3954C9B8F
:10793000E9F74C9B0BC04C9B09C04C9B07C04C9B70
:1079400005C04C9B03C04C9B01C089C06F93C09184
:107950002401DD27C55DDE4F2F9365E54C9B03C0F9
:107960002F916F91E6CF0F931F934F9320E040E14B
:107970005F9309B1047104FB27F93F9350E03BE0AA
:1079800039C0147140642F77012F5F5F1EC04068BB
:1079900019B114712F7752501FC0406409B12F776D
:1079A0000471D1F15F5F00C023C0406219B12F772D
:1079B000147191F15F5F00C025C004711027515010
:1079C00012F45D5F0000115027952C3F19B1C8F6E5
:1079D00014710127015027952C3FC8F6422749937F
:1079E00009B1047110274F73115027952C3FA8F649
:1079F0004695469519B1147179F0012701502795E4
:107A00002C3F98F66B5A60F3315009B1B0F600C0C4
:107A100011E01CBB002717C03B503195C31BD04061
:107A200011E01CBB0881033CF9F00B34E9F0209114
:107A300022011981110F1213EDCF093651F10D32C8
:107A400011F0013E39F7009329013F915F914F9169
:107A50001F910F912F916F91CCB3C0FD67CFDF9134
:107A6000CF91CFBFCF91189520912901222369F39F
:107A700010912701112339F534303AF13093270161
:107A800020932301109124013BE0311B309324010A
:107A90001CC0009127010130B4F40AE530910001C7
:107AA00034FD14C000930001C6E1D1E013C00527E6
:107AB00010E000C000000BB91AC0052710E0221F1B
:107AC0001DC010E021C04AE502C032ED432FC4E1E1
:107AD000D0E032E01AB114615C9A0BB11AB954E1EA
:107AE00020E865E320FF05270BB9279517951C3F74
:107AF000F0F66695B8F7B1F720FF05270BB9279583
:107B000017951C3FD0F62795179517FF05270000FE
:107B10001C3F0BB9B0F629913A9519F70B7E1091DD
:107B20002801110FC651D0400BB911F0109322015A
:107B300011E01CBB00611AB11B7E402F4B7E54E04C
:107B40005A95F1F70BB91AB94BB97FCF1BB8F89416
:107B50001DBA1092690081E085BF15BEE091140145
:107B6000F0911501099588E10FB6F89480936000B3
:107B7000109260000FBE589A1092210181E085BFDB
:107B800082E085BF80916900826080936900E89AF5
:107B9000549A20E005C0A89580EA9FE00197F1F78C
:107BA0002150C9F754987894FF2400E08091210176
:107BB0008823C9F480910B0190910C01A0910D01D3
:107BC000B0910E010196A11DB11D80930B01909300
:107BD0000C01A0930D01B0930E01815E9349A44066
:107BE000B04008F0BDC190912701935097FD3AC174
:107BF00080912401ACE0B0E0A81BB109A55DBE4FA7
:107C000041E040932101809123018D3209F0CDC0E4
:107C1000983009F025C183EC809316018AE58093A2
:107C2000000110920A013C91832F807611962C91CD
:107C30001197882309F441C086E091E090932601D2
:107C400080932501233099F412968C9112978033FA
:107C500011F0E0E008C01496EC911497E370F0E0A6
:107C6000EE5FFE4FE081E093090194E091C0253082
:107C700011F491E08DC0822F84508630C0F41296AA
:107C80008D919C911397909311018093100129304D
:107C900091F016969C9116979093120115968C91DF
:107CA00082708093130137FD6EC02FEF6DC02230BC
:107CB00011F440930F0190E06BC012968C911297D3
:107CC00010921F01222331F4109220012FE131E0A4
:107CD00092E054C0253019F4809328014CC026301E
:107CE000D1F513968C911397813019F486E998E7B2
:107CF00004C0823041F488EA98E79093260180938B
:107D0000250192E124C0833009F512968C911297D7
:107D1000882341F488E698E7909326018093250113
:107D200094E015C0813041F48CE698E790932601E9
:107D3000809325019CE10BC0823041F488E898E7EC
:107D400090932601809325019EE001C090E080E49D
:107D500080930A011DC0283019F42AE231E009C0DD
:107D6000293019F480932A0106C02A3021F42FE12A
:107D700031E091E003C02FE131E090E03093260143
:107D80002093250105C0292F80E880930A010AC0AD
:107D900017968C911797882321F416962C91291702
:107DA00008F0292F209301015BC080910A0187FF11
:107DB00057C080911201592F891708F4582F851B3D
:107DC0008093120160E0882309F461E0709113014F
:107DD000E0911001F091110140E037C0CF018F77A1
:107DE0009070892B49F4F89483E080935700E895CC
:107DF000789407B600FCFDCF4E5FF8948D919D916D
:107E000021E00C0120935700E895112478949F01FC
:107E10002E5F3F4FC9018F779070892B31F0662319
:107E200099F0451788F0772379F0F89485E08093EE
:107E30005700E895789407B600FCFDCFF89481E1EF
:107E400080935700E8957894F901451708F4C6CF58
:107E5000F0931101E0931001662311F010920101DB
:107E6000109227018091000184FF65C0809101017B
:107E70008F3F09F460C0182F893008F018E0811B8B
:107E8000809301018091160198E88927809316015B
:107E9000112309F43EC080910A0187FF1EC0809122
:107EA0001201811708F4182F811B80931201E091B1
:107EB0001001F0911101A7E1B1E003C084918D930D
:107EC0003196812F90E0895E9E4FA817B907B1F7D0
:107ED000F0931101E09310011AC0E0912501F09197
:107EE000260186FF09C0912FA7E1B1E084918D930F
:107EF00031969150D9F707C0912FA7E1B1E0819158
:107F00008D939150E1F7F0932601E093250119300C
:107F100060F487E191E0612F01DD612F6C5F6C30CF
:107F200041F08FEF8093010104C08FEF8093010136
:107F30006EE16093000194E189B1847131F4915054
:107F4000D9F7109228011092220180910F01882305
:107F500009F42CCEFA9409F029CE015009F026CE6E
:067F6000F5DDF894FFCFEF
:067F66005AFF1E950F00FA
:040000030000780081
:00000001FF
