:100000000C9434000C9451000C9451000C94510049
:100010000C9451000C9451000C9451000C9401026A
:100020000C9451000C9451000C9451000C949E05BA
:100030000C9451000C9451000C9451000C945100FC
:100040000C9451000C9451000C9451000C945100EC
:100050000C9451000C9451000C9451000C947500B8
:100060000C9451000C94510011241FBECFEFD8E026
:10007000DEBFCDBF13E0A0E0B1E0EAEBF2E102C0E9
:1000800005900D92A234B107D9F715E0A2E4B3E0D0
:1000900001C01D92AA3CB107E1F70E94EC020C944A
:1000A0005B090C940000CF93DF93C0EBD0E0188283
:1000B000E1EBF0E01082A0E7B0E01C921092B200F9
:1000C00082E38093B300888182608883808181602D
:1000D00080838081826080838081846080838C9132
:1000E00082608C93DF91CF9108951F920F920FB68B
:1000F0000F9211242F923F924F925F926F927F92B4
:100100008F929F92AF92BF92CF92DF92EF92FF9227
:100110000F931F932F933F934F935F936F937F930F
:100120008F939F93AF93BF93CF93DF93EF93FF93FF
:10013000809170008D7F809370001092B20083ECEC
:1001400095E065E973E00E9480088091C8058830D9
:1001500009F018C11092C8058091C70580939503D6
:10016000909145039923B1F4282F30E0A901407301
:1001700050704115510511F090E306C0207C30709D
:100180002115310519F090EC9093BC038F7080938A
:10019000C103F3C02091C103291708F0C9C08038FA
:1001A00009F0EBC08091BC03803C09F0BDC0C09059
:1001B0008A03D0908B03A0908C03B0908D03809025
:1001C0008E0390908F036090900370909103409005
:1001D00092035090930352E4252E51E0352E02EC09
:1001E00013E0E0E0F0E020E030E045E0E42EF12C28
:1001F000D1016D917D911D01DF01B070AA0FBB1F70
:10020000AE5BBE4F4D915C91440F551F440F551F7F
:10021000469DC001479D900D569D900D1124B4E060
:1002200096958795BA95E1F7660F771F660F771F4A
:100230006C9DA0016D9D500D7C9D500D112464E0BE
:10024000569547956A95E1F7840F951FD901B070CF
:10025000AA0FBB1FAE5BBE4F6D917C91660F771FDF
:10026000660F771F6A9DA0016B9D500D7A9D500D02
:10027000112464E0569547956A95E1F7840F951F20
:10028000D901AA0FBB1FAA0FBB1FAC7FB170AE5B19
:10029000BE4F6D917C91660F771F660F771F689D2B
:1002A000A001699D500D789D500D112464E0569574
:1002B00047956A95E1F7840F951FDF01AA0FBB1FD1
:1002C000AA0FBB1FAC7FB170AE5BBE4F6D917C912E
:1002D000660F771F660F771F649DA001659D500D07
:1002E000749D500D112464E0569547956A95E1F789
:1002F000840F951FB7010E940409CB01A0E0B0E074
:10030000E801699379938E012E5F3F4F389642E062
:100310002030340709F06CCF8093BD039093BE0367
:10032000A093BF03B093C0038FEF8093420325C017
:100330002091BC03203379F4E0914603F0E023E000
:10034000EE0FFF1F2A95E1F7E95BFC4FE90FF11D66
:100350003197808312C0203C81F4E82FE295E69526
:10036000E770F0E0EE0FFF1FE657FC4F869586958D
:1003700090E08770907091838083809145038F5FB8
:100380008093450380917000826080937000FF919C
:10039000EF91DF91CF91BF91AF919F918F917F911D
:1003A0006F915F914F913F912F911F910F91FF900E
:1003B000EF90DF90CF90BF90AF909F908F907F9005
:1003C0006F905F904F903F902F900F900FBE0F90C7
:1003D0001F90189510928000E1E8F0E0108287ED00
:1003E00092E0909389008093880080818860808368
:1003F000808181608083EFE6F0E08081826080838D
:1004000008951F920F920FB60F9211242F933F93CE
:100410004F935F936F937F938F939F93AF93BF930C
:10042000EF93FF9381E0809396039091C9058091AB
:10043000420393FF3BC02091C5052F5F2093C50564
:100440008F3F59F5977F9093C905709198037F5F0F
:1004500080E090E060E021E030E009C0A901082ED2
:1004600002C0440F551F0A94E2F7642B01968717C8
:10047000A8F385E993E00E94F60783EC95E00E94DB
:1004800041081092420387E493E060E070E040E4AA
:1004900050E00E9443090E94EA01809142038823B0
:1004A00009F476C08F5F8093420372C08F3FA9F436
:1004B00098609093C90585E993E06FEF0E94F60775
:1004C0001092B2001092810083EC95E00E947208B5
:1004D000109242031092450305C0882319F08F5FE4
:1004E00080934203809144038F3F59F485E993E060
:1004F0006FE00E94F6071092440382E080930101AE
:1005000005C0882319F08F5F8093440380914303D3
:100510008F3F59F485E993E060EF0E94F60710924F
:10052000430381E08093010105C0882319F08F5FA8
:100530008093430380910101823051F5209188031B
:100540002F5F2093880380910001281740F090913D
:10055000870390FD04C09F5F909387030BC030E03A
:1005600090E005972817390754F0809187038F5F33
:10057000809387031092880381E0809389038091A0
:100580008703883028F081E08093890310928703E5
:10059000809197038E3119F41092970305C0882338
:1005A00019F08F5F809397038091940391E08927DE
:1005B000826080939403FF91EF91BF91AF919F91DF
:1005C0008F917F916F915F914F913F912F910F90FC
:1005D0000FBE0F901F9018952F923F924F925F92EF
:1005E0006F927F928F929F92AF92BF92CF92DF9243
:1005F000EF92FF920F931F93DF93CF93CDB7DEB7A8
:1006000027970FB6F894DEBF0FBECDBFF894E2E493
:10061000F1E0A2ECB3E0819191918D939D9343E041
:10062000E234F407C1F780E490E00E943B09809334
:1006300040008F3F71F480E490E063E30E944D0935
:1006400087E493E060E070E040E450E00E944309FA
:1006500008C087E493E060E070E040E450E00E946E
:100660002B090E9453000E94C80780E060E040E030
:1006700024E00E947C07229A0E94EA010E94EE0771
:1006800080939503709198037F5F80E090E060E035
:1006900021E030E009C0A901082E02C0440F551F17
:1006A0000A94E2F7642B01968717A8F385E993E093
:1006B0000E94F6070E94470829833A834B835C8394
:1006C0006D837E838F83A3ECB5E0FE01319687E0D6
:1006D00001900D928150E1F783EC95E00E94410872
:1006E0007894EE24AA24FF24F39401E010E064E05F
:1006F000C62E56E1652E56E0752E4FEB442E45E092
:10070000542E3EE1232E35E0332E23E0B22EDE2C94
:1007100001C0AE2C85E993E064E973E00E94F9071B
:100720000E94E407E82E8091C90583FF15C08091DF
:100730009703882371F7EE2041F4AA2059F3F09231
:100740004203F0929703AA24E5CFAA2011F7F09272
:10075000970310924203DDCFEE2049F480914203CB
:100760008823F1F4F09242031092440317C01092D0
:1007700042038E2DE1FC07C090914403992329F494
:10078000F092440302C01092440380FD07C08091A0
:100790004303882329F4F092430302C010924303D9
:1007A00080910101813009F0AFC0809197038823C7
:1007B00009F04FC09E2CE0FC25C0A0FE23C0809114
:1007C0009803833020F48F5F8093980302C01092C7
:1007D0009803F0929703409198034F5F20E030E038
:1007E00060E00AC0C801022E02C0880F991F0A9457
:1007F000E2F7682B2F5F3F4F2417A0F385E993E0C2
:100800000E94F60791FC25C0A1FE23C080919803A9
:10081000882321F081508093980302C0B0929803FE
:10082000409198034F5F20E030E060E00AC0C801CB
:10083000022E02C0880F991F0A94E2F7682B2F5FDF
:100840003F4F2417A0F385E993E00E94F607F0924A
:10085000970380919603882309F45BCF1092960347
:100860000E94DB077FB7F89410929A0310929903C5
:1008700010929C0310929B0310929E0310929D0372
:100880001092A00310929F031092A2031092A10352
:100890001092A4031092A3031092A6031092A50332
:1008A0001092A8031092A703E0919803F0E094E05F
:1008B000EE0FFF1F9A95E1F7EE5FFE4F20E030E06C
:1008C00060E0482F50E0CA01022E02C0959587953E
:1008D0000A94E2F780FD0EC0643060F4A62FB0E009
:1008E000AA0FBB1FA756BC4F8081918111969C9384
:1008F0008E936F5F2F5F3F4F32962830310519F787
:100900006093A9037FBF05CF823009F002CF4091E9
:1009100046034F5F20E030E060E00AC0C801022ECD
:1009200002C0880F991F0A94E2F7682B2F5F3F4F90
:100930002417A0F385E993E00E94F6070E94DB07E5
:10094000982E80919703882309F07DC08E2CE1FCBE
:1009500026C0A1FE24C0809100018F3C20F4805F5E
:100960008093000103C05FEC50930001F092970365
:10097000409198034F5F20E030E060E00AC0C8017A
:10098000022E02C0880F991F0A94E2F7682B2F5F8E
:100990003F4F2417A0F385E993E00E94F60780FCFF
:1009A0000DC0A0FE0BC080910001803310F080517B
:1009B00001C08FE280930001F0929703892D90FC93
:1009C00006C0D0FE04C010924603F092970381FD4A
:1009D00006C0D1FE04C0F0924603F092970382FD58
:1009E00007C0D2FE05C092E090934603F0929703B1
:1009F00083FD06C0D3FE04C0B0924603F092970375
:100A000084FD06C0D4FE04C0C0924603F092970352
:100A100085FD07C0D5FE05C045E040934603F09232
:100A2000970386FD07C0D6FE05C056E050934603E7
:100A3000F092970397FC07C0D7FE05C087E080932C
:100A40004603F0929703C092A9032FB7F89410922F
:100A5000890380918703E0914603F0E063E0EE0FA5
:100A6000FF1F6A95E1F7E80FF11DE95BFC4F9081EC
:100A7000892F90FF07C04BE053E050939A034093B7
:100A8000990304C010929A031092990381FF07C042
:100A90004AE653E050939C0340939B0304C010929A
:100AA0009C0310929B0382FF07C045ED53E05093D7
:100AB0009E0340939D0304C010929E0310929D03D9
:100AC00083FF07C040E154E05093A00340939F038D
:100AD00004C01092A00310929F0384FF07C04FE848
:100AE00054E05093A2034093A10304C01092A203C8
:100AF0001092A10385FF05C03092A4032092A303A6
:100B000004C01092A4031092A30386FF05C0509264
:100B1000A6034092A50304C01092A6031092A50359
:100B200097FF05C07092A8036092A70304C01092BB
:100B3000A8031092A7032FBFD92CEBCD1F920F92C1
:100B40000FB60F9211242F933F934F935F936F93A0
:100B50007F938F939F93AF93BF93EF93FF932091D6
:100B6000990330919A032115310589F08091AC03E6
:100B70009091AD03820F931F2FE78F3F920710F0E4
:100B80008F5F9F479093AD038093AC0304C0109296
:100B9000AD031092AC0320919B0330919C0321156F
:100BA000310589F08091AE039091AF03820F931FBE
:100BB0004FE78F3F940710F08F5F9F479093AF03ED
:100BC0008093AE0304C01092AF031092AE03209145
:100BD0009D0330919E032115310589F08091B0036A
:100BE0009091B103820F931F2FE78F3F920710F070
:100BF0008F5F9F479093B1038093B00304C010921E
:100C0000B1031092B00320919F033091A0032115EE
:100C1000310589F08091B2039091B303820F931F45
:100C20004FE78F3F940710F08F5F9F479093B30378
:100C30008093B20304C01092B3031092B2032091C8
:100C4000A1033091A2032115310589F08091B403ED
:100C50009091B503820F931F2FE78F3F920710F0FB
:100C60008F5F9F479093B5038093B40304C01092A5
:100C7000B5031092B4032091A3033091A40321156E
:100C8000310589F08091B6039091B703820F931FCD
:100C90004FE78F3F940710F08F5F9F479093B70304
:100CA0008093B60304C01092B7031092B60320914C
:100CB000A5033091A6032115310589F08091B80371
:100CC0009091B903820F931F2FE78F3F920710F087
:100CD0008F5F9F479093B9038093B80304C010922D
:100CE000B9031092B8032091A7033091A8032115EE
:100CF000310589F08091BA039091BB03820F931F55
:100D00004FE78F3F940710F08F5F9F479093BB038F
:100D10008093BA0304C01092BB031092BA0380916F
:100D2000990390919A03009781F0E091AC03F091C0
:100D3000AD03EE0FEF2FEE1FFF0BF195EE0FFF1F30
:100D4000EE53FC4F8081918102C080E090E04091A1
:100D50009B0350919C034115510581F0E091AE0336
:100D6000F091AF03EE0FEF2FEE1FFF0BF195EE0F9B
:100D7000FF1FEE53FC4F4081518102C040E050E024
:100D8000840F951F40919D0350919E03411551057D
:100D900081F0E091B003F091B103EE0FEF2FEE1F61
:100DA000FF0BF195EE0FFF1FEE53FC4F4081518179
:100DB00002C040E050E0480F591F80919F0390917E
:100DC000A003009781F0E091B203F091B303EE0F1E
:100DD000EF2FEE1FFF0BF195EE0FFF1FEE53FC4FB1
:100DE0008081918102C080E090E0840F951F409146
:100DF000A1035091A2034115510589F0E091B4037C
:100E0000F091B503EE0FEF2FEE1FFF0BF195EE0FF4
:100E1000FF1FEE53FC4F0190F081E02D02C0E0E097
:100E2000F0E08E0F9F1F4091A3035091A403411542
:100E3000510581F0E091B603F091B703EE0FEF2F6B
:100E4000EE1FFF0BF195EE0FFF1FEE53FC4F60817D
:100E5000718102C060E070E0860F971F4091A5038A
:100E60005091A6034115510581F0E091B803F0912E
:100E7000B903EE0FEF2FEE1FFF0BF195EE0FFF1FE3
:100E8000EE53FC4F4081518102C040E050E0840F9E
:100E9000951F2115310581F0E091BA03F091BB0354
:100EA000EE0FEF2FEE1FFF0BF195EE0FFF1FEE532E
:100EB000FC4F2081318102C020E030E0820F931F7F
:100EC00096958795969587959093AB038093AA0303
:100ED00060E30E94B907FF91EF91BF91AF919F919D
:100EE0008F917F916F915F914F913F912F910F90D3
:100EF0000FBE0F901F901895203F39F42398249A25
:100F000094B1947094B9259804C0239A2498259A92
:100F1000229A1CBC442311F050EC01C050E46295AD
:100F2000660F607E203F11F040E101C040E090E09C
:100F300081FF02C038E001C030E081709070880FFE
:100F4000991F880F991F862B922F9270892B922FB1
:100F50009170892B852B842B832B8CBD81E022FF04
:100F600080E08DBD08958EBD0DB407FEFDCF8EB51A
:100F700008951F93182F2A98892F8F70607F862BD2
:100F80000E94B307812F0E94B3072A9A1F910895E8
:100F90008AB1807C8AB98BB18F638BB984B18C7F25
:100FA00084B985B1836085B987B18F7C87B988B1F1
:100FB000806388B9089593B189B19295990F990F7B
:100FC000907C8F73892B089586B190E08073907028
:100FD00024E0959587952A95E1F7089588B1807F5B
:100FE00088B987B1807F87B980E00895FC0160836C
:100FF0000895FC01DB018C9181FF42C08D7F8C93B1
:1010000088B1807F88B987B1807F87B99C918081C2
:1010100090FF1BC080FF03C043983B9A01C03B98E0
:10102000808182FF03C042983A9A01C03A98808139
:1010300084FF03C04198399A01C03998808186FFA6
:1010400002C040981AC03898089581FF03C0439A9F
:101050003B9A01C03B98808183FF03C0429A3A9A31
:1010600001C03A98808185FF03C0419A399A01C036
:101070003998808187FF03C0409A389A089538983C
:10108000089520B7277F20BFFC0116820895DF93C3
:10109000CF93CDB7DEB72E970FB6F894DEBF0FBE55
:1010A000CDBF88E180BFFE01319687E0DF011D9250
:1010B0008A95E9F7DE01189687E001900D9281503C
:1010C000E1F7288539854A855B856C857D858E8528
:1010D00090E02E960FB6F894DEBF0FBECDBFCF9135
:1010E000DF910895FC011082118212821382148212
:1010F000158286818860868380B7886080BF089566
:10110000DF92EF92FF920F931F93CF93DF93FC0137
:101110007B01568150FF2DC062817081262F30E007
:1011200085E0789FC0011124A3E095958795AA9545
:10113000E1F7821793072CF451FF5BC08481880F7D
:101140000EC072957F70761708F053C052FF0EC024
:101150005B7F568351FF08C08481880F8160848340
:1011600085818F5F858345C0526001C0546056837E
:1011700040C04381443029F451605683DB011C9206
:1011800038C0D280CD2DD0E0018110E0C801880F99
:10119000991F880F991F23E030E0B9010E941809B8
:1011A000C617D707B4F4C801880F991FB9010E9468
:1011B00018096C177D076CF48081882331F0C80F03
:1011C000D11DD595C795C08301C0D0824F5F4383A1
:1011D00002C010821382238130E02F5F3F4F81E0F5
:1011E00090E002C0880F991F2A95E2F78160D7012D
:1011F0008C93828181831282DF91CF911F910F9115
:10120000FF90EF90DF900895AA1BBB1B51E107C030
:10121000AA1FBB1FA617B70710F0A61BB70B881F86
:10122000991F5A95A9F780959095BC01CD01089515
:1012300097FB092E07260AD077FD04D0E5DF06D0FC
:1012400000201AF4709561957F4F0895F6F79095F8
:1012500081959F4F0895DC01CB01FC01F999FECFE8
:1012600006C0F2BDE1BDF89A319600B40D9241502E
:101270005040B8F70895F999FECF92BD81BDF89A14
:10128000992780B50895DC01CB0103C02D910E9400
:101290004E0941505040D0F70895262FF999FECFBE
:1012A0001FBA92BD81BD20BD0FB6F894FA9AF99A83
:0A12B0000FBE01960895F894FFCFD9
:1012BA005F011606D506AB0720081F093D0A7E0BFB
:1012CA002D0C0B036A03D5038F041E051606D506DB
:1012DA00AB070B039E0310044E048F046C0516061D
:1012EA003D070B036A039E0310048F041E056C0559
:1012FA001606FF07310863089608C808FA082B097A
:10130A005D098E09C009F109210A510A810AB10A47
:10131A00E00A0F0B3D0B6A0B980BC40BF00B1C0C6D
:10132A00460C710C9A0CC30CEB0C120D380D5E0DA9
:10133A00830DA70DCA0DEC0D0D0E2E0E4D0E6C0E63
:10134A00890EA50EC10EDB0EF50E0D0F240F3A0FF6
:10135A004F0F630F750F870F970FA60FB40FC10FAB
:10136A00CD0FD70FE00FE80FEF0FF50FF90FFC0FB6
:10137A00FE0FFF0FFE0FFC0FF90FF50FEF0FE80F2F
:10138A00E00FD70FCD0FC10FB40FA60F970F870F1E
:10139A00750F630F4F0F3A0F240F0D0FF50EDB0E6B
:1013AA00C10EA50E890E6C0E4D0E2E0E0D0EEC0DF5
:1013BA00CA0DA70D830D5E0D380D120DEB0CC30C73
:1013CA009A0C710C460C1C0CF00BC40B980B6A0B94
:1013DA003D0B0F0BE00AB10A810A510A210AF109F1
:1013EA00C0098E095D092B09FA08C808960863081E
:1013FA003108FF07CD079B07680736070407D3069E
:10140A00A10670063E060D06DD05AD057D054D05F6
:10141A001E05EF04C104940466043A040E04E203B0
:10142A00B8038D0364033B031303EC02C602A00254
:10143A007B02570234021202F101D001B10192017A
:10144A00750159013D0123010901F100DA00C400C7
:10145A00AF009B0089007700670058004A003D00F2
:10146A00310027001E0016000F00090005000200C7
:10147A000000000000000200050009000F0016002D
:10148A001E00270031003D004A005800670077001F
:10149A0089009B00AF00C400DA00F10009012301B2
:1014AA003D01590175019201B101D001F101120208
:1014BA00340257027B02A002C602EC0213033B036A
:1014CA0064038D03B803E2030E043A046604940429
:1014DA00C104EF041E054D057D05AD05DD050D06AC
:1014EA003E067006A106D3060407360768079B075F
:0214FA00CD071C
:00000001FF
